:10100000C0730020393101008DF20100253101004B
:1010100025310100253101002531010000000000CB
:10102000000000000000000000000000ED320100A0
:101030002531010000000000B93201002531010016
:10104000A5340100E5000200A5340100A53401002B
:10105000A5340100A5340100A5340100A534010028
:101060009B000200A5340100A5340100CF0002005E
:10107000A5340100A5340100A5340100A534010008
:10108000A5340100A5340100A5340100A5340100F8
:10109000A5340100A5340100A5340100A5340100E8
:1010A000A5340100A5340100A5340100A5340100D8
:1010B000A5340100A5340100A5340100A5340100C8
:1010C000A5340100A5340100A5340100A5340100B8
:1010D000A5340100A5340100A5340100A5340100A8
:1010E000A5340100A5340100A5340100A534010098
:1010F000A5340100A5340100A5340100A534010088
:1011000053B94AB9002908BF00281CBF4FF0FF316E
:101110004FF0FF3000F00CB8ADF1080C6DE904CED3
:101120000BF098FBDDF804E0DDE9022304B0704722
:10113000704700BF1FB50B4B01934FF4B073ADF870
:10114000083008238DF80A3083788DF80B3001A918
:10115000FF2303208DF80C3000F0D8FC05B05DF8BB
:1011600004FB00BFD5F500001FB50A4B0193902387
:10117000ADF8083008238DF80A30C3788DF80B30AD
:1011800001A9FF2304208DF80C3000F0BFFC05B04E
:101190005DF804FBC9F90000F7B504460D4641B9F6
:1011A000124B5B78012B04D0019101A80121FFF7BC
:1011B000F3FF23680E4E0F4F0733002D23F0070374
:1011C00023600CBF2046002000F078FC002556F874
:1011D000043B0BB13846984701350F2DF7D100F08D
:1011E000E5FC23680344236003B0F0BD50070020F2
:1011F00054000020520700202DE9F04385B0974CA1
:101200000390064603A80D46FFF7C6FFA778E378CC
:101210004FF000091F44FFB2C8465FFA89F39F42AE
:1012200000F209810398033020F00300002D0390A1
:10123000414618BF002000F005FE039B21791844A9
:10124000039081B16379627C033020F00300002DAC
:101250001A440390A389D2B218BF002000F04CFEBC
:10126000039B034403937E4F7B68CBB1E17AB9B112
:1012700094F828300398002B00F1070014BF402396
:10128000252320F0070014BF4FF481722822002D7F
:10129000039018BF002001F0FBFA039B0344039363
:1012A000A17B91B123791BB97B6873B1E37A63B1F8
:1012B0000398073020F00700002D039018BF00208E
:1012C00003F06EF8039B03440393664B1B6873B1F2
:1012D000A17961B10398E27B033020F00300002D77
:1012E000039018BF00209847039B034403935E4B71
:1012F0001B686BB1217C59B10398033020F00300C7
:10130000002D039018BF00209847039B03440393CC
:10131000564BD3F80080B8F1000F11D0617C79B141
:101320000398237D0093033020F00300002DE37C1D
:101330000390A27C18BF0020C047039B0344039383
:10134000FB697BB1A17969B10398A27D033020F0DC
:101350000300002D039018BF002000F0BBFE039B8C
:101360000344039394F8210080B1039AE37E217E25
:101370000332194422F0070242F004022B46C9B29C
:10138000039200F0E7FE039B0344039394F82210BA
:1013900000295AD0039FA28C0737002D27F007079A
:1013A0000CBF3846002003970CF025F9039B03443B
:1013B00003931DB9A18C384607F09EF9217F0029BF
:1013C00045D094F82030002B41D00398E28B0730B1
:1013D00020F00700002D02F12402039092B218BF02
:1013E00000200CF008F9039FA37E217E3A180332F7
:1013F000194422F0070242F004022B4694F8200020
:101400000392C9B200F098FE039B0344039335B9DD
:10141000E28B217F083292B2384607F087F9E36AFF
:1014200023B1039B05B9E362283303930398801B20
:1014300005B0BDE8F083A37A627A217AE0790CF0F6
:10144000ACF809F101098044E7E60F46B1E7002D49
:10145000E5D12A4629462846DFE700BF500700208D
:1014600054000020900000209800002094000020EC
:101470008FB572B6194B1D6BE5B9BFF34F8F184985
:10148000184BCA6802F4E0621343CB60BFF34F8F7E
:1014900000BFFDE7B4FBF6F4DAB20133002CF9D15A
:1014A00002F110036B440A2603F80C4C32B901A870
:1014B000A847E2E7044600230A26EDE7531E04ACE2
:1014C00054FA83F4DAB2C3B2B3FBF6F706FB173370
:1014D000303304F80C3CB0FBF6F0E7E7500700208F
:1014E00000ED00E00400FA051FB5164CA37A8DF854
:1014F0000930637A8DF80830237AADF80C3002A8F1
:10150000E379ADF80A3002F0AFF918B1DB2103201E
:10151000FFF7AEFF012301A88DF804300DF0E2F8CB
:1015200008B1DF21F3E7207D02F0CAF908B1E2211A
:10153000EDE7E07C02F0BEF908B1E321E7E704B093
:1015400010BD00BF5007002038B50546002840D028
:101550000AF0A2FC10B94FF0FF3038BD07F058FB7D
:10156000B0F5FA7FF7D81D4C1D482563002500F023
:1015700047FA29463C221B4865700BF03BF82622AF
:101580002946A01C257084F82850E5620BF032F83B
:101590001B22E27140F21B32228140F2023240F201
:1015A000011362811F226380A28101234FF4027222
:1015B0002371E281A37544F60112FB236282A384A6
:1015C000EFF3108472B600F0D5FD2CB962B6204658
:1015D000C3E76FF01500C0E72846BEE750070020BC
:1015E000E91400005400002010B5002840F0A3804A
:1015F000544C6378022B00F09B80A1B1002A6CD080
:101600000139142900F29780DFE801F00B181B2B39
:10161000535B74315E616F373D4A4F797C898C8FA3
:1016200081001378A37001210020FFF7E5FDB0F5DC
:10163000803F80F283800123637010BD1378E370D4
:10164000F1E79378002B48D0D378002B45D013785E
:101650001A2B42D953781A2B3FD91368C4F8073094
:10166000E1E713786279934237D32371DBE713788C
:101670002279934231D86371D5E713782279934266
:101680002BD86374CFE713783BB35378013BDBB2BD
:10169000F82B22D8138863822B4B92789A70C2E77A
:1016A0001078607505F050F9BDE71378ABB1A375FC
:1016B000B9E71378254A52680AB1012B0DD9E372B4
:1016C000B1E71388A381AEE71378A371ABE71F4995
:1016D0001378C96921B9012B04D86FF01500ACE764
:1016E000002BFAD01378E3739DE71378082BF4D816
:1016F000237498E71388FF2BEFD8A37393E713782D
:10170000E37590E713780E2BE7D823768BE7136801
:101710000F49E36153684B6013890B8183E71378AA
:10172000637680E71378E3767DE71378A3767AE72C
:101730004FF0FF3081E76FF02C007EE76FF00B0079
:101740007BE700BF50070020620700205400002004
:101750006C07002070B50D460646E8B1E1B111F006
:10176000070419D100F088F8C8B130460AF008FD26
:101770000C4E214686F834002846FFF73DFD0EF05A
:1017800048FB96F83400F16A02F0EAF8FFF7ACFE85
:1017900002237370204670BD6FF01500FBE74FF019
:1017A000FF30F8E75007002010B5074C6378022B94
:1017B00005D102F0F1F894F834000AF0FDFC0CF0C9
:1017C0004DF80020607010BD5007002050B1074B4D
:1017D00003F1140253F8041B40F8041B9342F9D19F
:1017E000002070476FF01500704700BF813602007F
:1017F00010B5064B5C7834B902F07EF8044B054A0C
:10180000DA60204610BD4FF0FF30FBE750070020A4
:10181000540000203511000010B5054B5C781CB950
:101820000CF0A9FF204610BD4FF0FF30FBE700BFD2
:101830005007002010B5064B5C7834B902F076F8FA
:10184000044B054A1A61204610BD4FF0FF30FBE7FC
:10185000500700205400002069110000024B02686C
:101860001A600020704700BF88070020014B1B68EA
:10187000184700BF88070020024B1868003818BFBF
:10188000012070478807002073B52E4D031D0446C4
:101890002B60284602F03CFC0228064606D1294966
:1018A00020460BF035F9304602B070BD042842D115
:1018B0002B78092B0AD0252B1ED0294620460BF069
:1018C0008CF9B0F5817F2DD3722112E005213E20E5
:1018D0000BF010F90028F0D1EB782A7901A943EA3E
:1018E00002236846ADF800300BF048FD0028D0D048
:1018F00053210820FFF7BCFD1A213E200BF0FAF817
:101900000028DAD16B68C3F30F23ADF804306946C1
:10191000112301A88DF806300BF052FD0028B8D035
:101920006521E6E70028B4D0A17820780BF0E2F832
:101930000028B8D1ADE70828B5D1024920460BF000
:1019400016F9B0E78C070020074B4FF0FF3141F646
:10195000FF72C3E9001205490022C1E900221F21DC
:10196000C3E90212704700BF000000209008002069
:101970003F280CD801380B4BC0F3421200F01F0077
:1019800053F8223023FA00F000F001007047FF28DE
:1019900006D04038C0F34212034B00F01F00EFE7BF
:1019A0000120704700000020900800200146074BEE
:1019B000006849681A4603C240F48C221A6041F05C
:1019C000107242F4FF625A60704700BF00000020AE
:1019D0000246024B0068516803C3704708000020AC
:1019E0000138064BC0F3421203EB820300F01F00E4
:1019F0009B6823FA00F000F001007047000000200F
:101A0000014B1860704700BF9808002010B5FFF721
:101A10009BFF0CF0CCF9034B1B68044603B19847BD
:101A2000204610BD980800200B880288F0B5C3F34B
:101A30000E049EB204F11803C57CC35A05352A442E
:101A40002B4497B213FA82F3013B4288B3FBF7F3BE
:101A500013FB07439BB29A42044A93BF22EA060350
:101A6000324013439BB20B80F0BD00BF0080FFFFEC
:101A700010B5114B00EB41041A786389B3FBF2F304
:101A800003FB0223013A1A44B2F5706F027928BFB2
:101A900000231A448378B2FBF3F0194403FB1020AF
:101AA000091AB1FBF3F003FB101313446FEA43432D
:101AB0006FEA5343638110BD9C08002010B5124BA0
:101AC000E0B15A78022A04D040F22B111720FFF718
:101AD000CFFC03225A70026812F0070102D04FF4C3
:101AE0009871F3E75C685A60224402609A60BDE82E
:101AF00010403C2203F10C000AF07CBD01225A7018
:101B0000C3E9010010BD00BF9C0800202DE9F04191
:101B1000254E96F801E00EF0FD0CBCF1010F04D04B
:101B200040F245111720FFF7A3FC91F80680B8F1A9
:101B3000080F02D940F24711F4E7CF7997B3454631
:101B4000022D726838BF02257B1D5C0002EB430347
:101B50006A1E13446D422B408D884544013DC8F1F7
:101B600000022A404FF6FE75AA4202D94FF4A9712D
:101B7000D8E7BEF1030F12D106EB80001C1BC5682D
:101B800015B140F25711CDE7C460A770228084F8E8
:101B900003C0087A09682071080CE080218107FBE6
:101BA00002337360BDE8F0819C0800202DE9F04706
:101BB000364C6378012B65D0032B04D040F26711BB
:101BC0001720FFF755FCD4E901329A4202D04FF4B6
:101BD000B571F5E72546002305F80C3B1E460E229D
:101BE000994655F82200013A58B190F8048081785E
:101BF000B8F1FF0F2FD180F804908E423CBFCEB2D7
:101C00000123511CEDD103B126700E2640F6FF6969
:101C100055F826709FBB013EFAD204236370002062
:101C2000BDE8F08755F82CE0BEF1000F06D09EF815
:101C300004A0C24504BF9EF802E077440CF1FF3CCB
:101C4000BCF1000FEEDA3944FF2907D903B1267041
:101C50004FF48371B4E794460027F1E70771CCE7AE
:101C600007EB41033846A3F80A90FFF701FF08F19C
:101C70000108BB785FFA88F18B42F1D8CBE74FF0CF
:101C80000008F6E7022360686370C9E79C0800203B
:101C9000034B03EB8003D86800B18078704700BF26
:101CA0009C080020F8B54FF6FF730380184B03EB38
:101CB00081030546D868B8B186780379B3FBF6F29C
:101CC00006FB1233DBB219460A1D00EB4202B2F9E1
:101CD00002705488002F09DB0131B1FBF6F206FBDC
:101CE0001211C9B28B42EFD10020F8BDFF29FBD001
:101CF000C4F30E03C4782B8024B94FF4D971172094
:101D0000FFF7B6FB5380BDE8F8400BF010BC00BFF6
:101D10009C0800201D4B03EB810370B5DC68054671
:101D200044B3030404D54FF4E0711720FFF7A0FB80
:101D3000014620460BF0DDFBFF28014604D020467B
:101D4000BDE870400BF0F3BBA078B5FBF0F300FBEF
:101D50001353DBB219460A1D04EB4206B6F90260C2
:101D6000002E09DB0131B1FBF0F200FB1211C9B208
:101D70008B42F0D1002070BDFF29FBD08B4204EBD9
:101D800042021CBF0023E3705580D8E79C08002066
:101D9000094B03EB810310B5DC68014620460BF0CC
:101DA000A8FBFF28014604D02046BDE810400BF0F8
:101DB000BEBB002010BD00BF9C080020F8B5104B32
:101DC00003EB81030746DC68014620460BF091FBDC
:101DD000FF28054611D0E688238953EA064606D037
:101DE000014620460BF0A3FB01463846B04720468B
:101DF0002946FFF73DFE0020F8BD0320FCE700BFA9
:101E00009C08002038B50E4B827903EB8203044610
:101E1000D86808B9022038BD8278E1799142F9D2B8
:101E20004B1CE37100EB41035D89B3F90A30002BD1
:101E3000F3DBA5800BF07BFB20600020EBE700BF0D
:101E40009C08002070B5044610F003000E4603D035
:101E500049211820FFF70CFB0BF003FB054624B1CA
:101E60000348314604600BF0FCFA284670BD00BF01
:101E7000E40800202DE9F04F1E4C85B09246226800
:101E8000BDF83CB098468146BDF838300D461AB9C9
:101E90005B211820FFF7ECFA1A460A2150460393FB
:101EA0000BF0BAFA5A460646092140460BF0B4FA3E
:101EB0003118074620680BF0F2FA039BC9F80000BE
:101EC00018B9286005B0BDE8F08F84192C60D9F8E6
:101ED00000000093524631460A230BF075FA286839
:101EE000CDF838B009234246394605B0BDE8F04F79
:101EF0000BF06ABAE4080020F8B511441D4EC9B2CF
:101F000010F00305317003D04D210920FFF7B0FA1E
:101F10001F2B19D89B009BB2033323F003039BB202
:101F200008B17060338101EB81047668E2004FF004
:101F3000010C00EBC404EFB2B94212D8D01D03FB70
:101F4000010020F00700F8BDFF2B4FEA430204D93F
:101F5000FF339342DFDB93B2DEE77C2AFBDC7C239A
:101F6000DAE710B186F800C07460013528361C44E9
:101F7000E1E700BFE808002038B5144A1478536838
:101F80000021C8B2844203D8A8210920FFF770FAC3
:101F90001846013105782833002DF2D000218170D8
:101FA00001241289447044688161C161920800F182
:101FB0002001051D21F8022B994245F8044B1444D9
:101FC000F8D100234361037038BD00BFE80800204A
:101FD0000A4B1B89B3F5FF7F4FEA930006D25A08DC
:101FE0009B1A9BB2984238BF18467047B3F5EE6F04
:101FF00001D8FF22F4E740F27263F3E7E80800201B
:102000002DE9F8434B7880460C4602F0040602F0B6
:10201000FB07D3B1DFB12E4BD4F804901D89B7BBB9
:1020200001236370AD08A761E76104F120034A460C
:10203000211D04F1280023F8025B984241F8042B8B
:102040002A44F8D10023636101E0002FE3D0FF238D
:10205000A370002E18BF0226A3191B7D032B03D1EA
:10206000022F1CBF0136F6B2A31901221A7506F120
:102070000C0204EB8606002324F812307268A37069
:10208000C8F80020A8F804304046BDE8F8830021D5
:1020900014226170A0180AF0ADFAB5F5FF7F0FD2D7
:1020A0006B08ED1AADB209EB0502C4F80490258463
:1020B000A2606384C4F80C90A5842261E384C6E71F
:1020C000B5F5EE6F4FF0FF03EBD940F27265EAE72A
:1020D000E80800202DE9F74305460C46F7200521C6
:1020E00090460BF099F9064685B115F0030703D029
:1020F0008F211920FFF7BCF9DFF83890C9F810508C
:10210000A9F81400A5B2BBB29D4204D806FB04F0A6
:1021100003B0BDE8F083B9F814C0D9F81000CDF8C9
:10212000008007FB0C000523F72231460BF04CF929
:102130000137E8E7FC08002007B5CDE900230B468E
:1021400003490246081D0BF063FB03B05DF804FB76
:102150001409002013B5064CCDE900230B460246B6
:1021600004F1080104F10C000BF052FB02B010BDA9
:1021700014090020134B012200214FF0FF309A6018
:10218000C3F80012C3F80803C3F80015C3F8042508
:102190009A60C3F80803C3F80015C3F804250A4978
:1021A0000A4A03F580334FF40040C3F80825C1F80C
:1021B0008000BFF34F8FBFF36F8FC1F88001C3F86A
:1021C0000825704700F0004000E100E00000F63F05
:1021D000014B1876704700BF28090020F0B583B086
:1021E0000023044601A8019306F0A8FA019B03F01E
:1021F0000303002B0BBF182522250F2619260CBF21
:1022000000270A270AF01EFB38B120460DF08BFA92
:1022100070B905F1610003B0F0BD0AF06FFA002853
:102220000CBF3D46354620460DF07DFA0028F0D023
:1022300020460DF05AFA18B105F15A0003B0F0BD6E
:1022400020460DF056FA0028F6D105F15000E2E7DD
:102250002DE9F047002800F0DA800446082900F252
:10226000CB80DFE801F091A92424A5C91F9CC500FB
:10227000014620460DF0B8F9D4F83C3100F1F705DD
:102280009D4240F2BD80E81A322838BF3220032137
:1022900009F0A0FAC4F83C51064620460DF064FA55
:1022A000002E7AD02046BDE8F0470DF061BAFFF766
:1022B00095FFB4F83231A4F840010022062B84F8CF
:1022C000382184F8432100F28C800133A4F83231A4
:1022D00004F59C75284608F087FB002800F09B80D9
:1022E00094F8583103F0FF01002B72D1D4E9540265
:1022F0006FF000439A4208BFB0F1FF3F12D0204672
:10230000D4E952670DF070F9D4F85031D4F8542163
:102310009B1B00F1F70062EB07021B1A62F100023F
:10232000002A53DB94F81001294608F073FC0028BA
:102330007BD0D4F84851D4F82871D4F84C61D4F843
:102340002C81AF4278EB060327D220460DF097F997
:1023500050EA010381468A461FD0E81B4A4666EBD5
:10236000080153460AF010F8D4E94A3209FB01F19A
:1023700000FB0A11A9FB009013EB0903014441EB98
:102380000201C4E94A3108E003F0E6FDD4F83C015B
:10239000E73809F0C5F9002842D0BDE8F08790F889
:1023A000100108F0EDFA002384F83031BDE8F08721
:1023B000BDE8F04705F012BD0DF0A3F900283FF489
:1023C00057AF2046BDE8F0470DF0CEB9204603F0E8
:1023D000CBFD94F8100108F0D3FA002384F83031D3
:1023E000A7E7D4F8143173B1012384F842316FE7C1
:1023F000F2213020FFF73CF8F6213020FFF738F8C3
:10240000C4F83C51DDE7022384F8423160E7D22171
:102410003020FFF72DF840F29F613020FFF728F8B9
:1024200040F281213020FFF723F840F2A3613020F1
:10243000FFF71EF8D0F81401704700BF2DE9F043F4
:1024400085B000230322CDE9003301268DF8062054
:102450006846FFF7D7FC044620BB009D95F8303155
:10246000002BF5D085F85861012128460DF082F93E
:1024700095F83031002BEBD095F8100108F0D6FE1E
:1024800095F8100109F0D0FA95F8100108F078FAE3
:1024900000283CD085F830416846FFF7B3FC04467D
:1024A0000028DAD0DFF87C80012388F8103000257E
:1024B00002264FF6FF771AE0029BE3B193F88423DC
:1024C000202A18D01888B8421BD00221FFF760FCE0
:1024D000814608B390F8840309F0A6FA99F88403BA
:1024E00089F83C4308F04CFA202389F88433CDE97D
:1024F00002558DF80E6002A8FFF784FC0446002800
:10250000DAD0002088F8100005B0BDE8F08340F272
:102510000D213020FEF7ACFF40F229113020FEF7EC
:10252000A7FF00BFF4090020054B0022012142F261
:1025300010701A72588219701A74FFF77FBF00BFAB
:10254000F409002090F83031002B40F0A3802DE9F1
:10255000F04104460F4601465648154603F0FF0871
:1025600008F0E2F9202806466DD04146502204F5D5
:1025700088700AF03FF8012384F81061C4F81471E0
:1025800084F8303137B101F097FE00F007000130D8
:1025900087F828032046FFF721FE00270223A4F82E
:1025A0004001A4F8423184F8387106F037FBB4F8E2
:1025B00040619D3606442046B6B20DF0A2F80028D0
:1025C00044D00CF035F900F5CD6189B2284606F00B
:1025D000F5FA2844C4F83C010DF091FC301841F1A3
:1025E00000010126C4F84801C4F84C1184F81861B0
:1025F000E78420460DF09BF8002843D03146204662
:102600000CF0F2FFA5F2F3452D1AC4F81C514FF05F
:10261000FF326FF00043C4E9542394F8100104F52D
:102620009C7108F0F7FA00283ED0D4E95223002527
:102630002046C4E94A23A4F8325129460DF09AF8FD
:102640002846BDE8F0810C20BDE8F0810146204617
:102650000CF0CAFF184FF730C4F83C01788A08B173
:10266000E08CC8B906440DF04AFC361841F100016F
:10267000C4E95261002DCAD0AE1941F10001C4E98C
:102680005461CAE730460DF05EF9F73D2D1AC4F8E3
:102690001C51BCE70C20704701F00EFE7B8AB0FB9A
:1026A000F3F202FB1300DDE740F2EF113020FEF7FA
:1026B000DFFE00BF51220000F409002090F8303105
:1026C0000BB90020704710B50121044680F858115D
:1026D0000DF050F894F830310BB9002010BD94F88B
:1026E000100108F0A3FD94F8100109F09DF994F889
:1026F000100108F045F920B1002384F830310020A2
:1027000010BD40F20D213020FEF7B2FE014B1872D1
:10271000704700BFF409002090F8582182B910B525
:1027200002F0FF0490F8182112B90122104610BDE2
:10273000D0E947319942F9D903F016FC2246F5E772
:1027400000221046704700BF08B54FF4FF710CF02F
:102750009DFBB0F5296F28BF4FF4296080B208BDFA
:10276000F8B5044651B1012962D1002380F818312F
:1027700004F0DAFEBDE8F84007F030BFC58C002D4C
:102780004ED12046D4E94A760CF079FF401941F148
:102790000001C01946EB010602230022C4E95206DB
:1027A000A4F8423184F838212046FFF717FDD4E918
:1027B000525694F85831A4F84001C4E94A5603F03F
:1027C000FF017BB9D4E954026FF000439A4208BF7D
:1027D000B0F1FF3F0FD194F8100104F59C7108F09F
:1027E00019FA50B30023A4F8323104F09DFEBDE87D
:1027F000F84007F0F3BE20460CF0F6FED4F8503156
:10280000D4F854215B1B00F1F70062EB06021B1A9F
:1028100062F10002002ADEDA204603F0A5FBE1E7C0
:1028200001F032FDE58CB0FBF5F303FB1505A8E7DD
:102830004FF4F5613020FEF71BFE40F2FA613020C4
:10284000FEF716FE90F83001704700BF014B58822A
:10285000704700BFF409002090F85030032B0ED0D1
:10286000013B012B01D90020704790F8510000F086
:10287000FD00A0F10100B0FA80F04009704790F827
:102880005200A0F10100B0FA80F04009704700BF8B
:10289000253270B592B205460C461E460AF0ABFED4
:1028A00045B1054A0023156082F8484082F8496026
:1028B0001471536470BD00BF140A0020014B1870DE
:1028C000704700BF1100002090F87000003818BF5A
:1028D00001207047014B5870704700BF6C0A002000
:1028E000C369ABB110B4D0E90214DA68D0F818C0EB
:1028F000C3F818C0214411448269D96032B1D36150
:1029000000220023C0E9062310BC7047DA60F7E715
:10291000826904490A6002B1D36100220023C0E940
:1029200006237047740A002008B5C161A1B18B6904
:102930008861836173B1D861C1690023C36041B10B
:10294000CB6823B18268934211D39B1AC3600023E2
:10295000CB6008BDC360F3E7074A136883611BB10E
:10296000D861C1691060E8E71060C36008BD2D211F
:102970003720FEF77DFD00BF740A0020014B186868
:10298000704700BF740A00200D4B1B68B3B100B53F
:1029900084464FF0FF3E002000E01346DA6894457D
:1029A00003D8964584BF184696469A69002AF4D102
:1029B00011B9002808BF18465DF804FB1846704797
:1029C000740A002030B585B0DDE90834C01A61EB27
:1029D0000404002C15460BDB214603AA009202AB2F
:1029E0002A4609F0C5FC002C039805DB05B030BD74
:1029F000404264EB4401F0E70028F7D0281A05B004
:102A000030BD00BF014B01221A717047740A0020CB
:102A1000014B00221A717047740A0020014B18798B
:102A2000704700BF740A002038B52C4B1B688646DF
:102A300008466BB34FF0000C64461D690CB1A5420B
:102A400004D22C46002D43D0B3F814C09B69002B50
:102A5000F3D1ECB1A0421CD3B0FBF4FC0EF1FF3E6D
:102A60000EEB0401B1FBF4F18C4511D304FB0CF324
:102A7000B3FBF4F504FB153525B9B3FBF2F502FB06
:102A800015350DB30CF1FF3C8C45A3EB0403EFD2DD
:102A900038BD431E2344B4FBFEFEB3FBF0F3734585
:102AA000F6D8B4FBF3F503FB154149B9B5FBF2F1D8
:102AB00002FB115121B9B5FBFCF10CFB115129B1FD
:102AC00001337345EDD938BD184638BD284638BDA9
:102AD0004FF496713720FEF7CBFC00BF740A00203C
:102AE00008B523211A20FEF7C3FC00BF38B5054600
:102AF0000C4691F8FB3113B191F805328BB9002DDA
:102B000050D02B7873B194F8F0318BB304F1B0004E
:102B10000DF0A2F900230022C4E968230023C4F8C1
:102B2000A83138BD94F8F2316BB9B4F8AC01022188
:102B3000FFF72EF938B104F2152100F5AE700AF056
:102B40003AFD00283ED0B4F8B0010921FFF736F96C
:102B5000002844D16B6F002BE3D1B4F8AE010821FB
:102B6000FFF72CF90028DCD060211A20FEF780FC4A
:102B700094F8F23103F0FF017BB9B4F8AC01FFF730
:102B800007F950B104F2152100F5AE700AF013FDFB
:102B900018B92B211A20FEF76BFC4FF6FF73A4F82F
:102BA000AC31B3E794F8F23173B9B4F8AC01022157
:102BB000FFF7EEF840B104F2152100F5AE700AF00F
:102BC000FAFC08B9FFF78CFFB4F8B0010921FFF750
:102BD000F5F80028A5D04E211A20FEF749FC532114
:102BE0001A20FEF745FC00BF90F8F23123B9B0F887
:102BF000AC010221FFF7CCB80020704738B550B3C4
:102C000090F8C7302A2B04461FD14AB92B2380F8ED
:102C1000C73094F90831002BA8BF002017DB38BD5E
:102C20001F230D4680F8522180F85331322380F85B
:102C3000C7300029EDD0B1F8AE010821FFF7A8F8A0
:102C400068B12946FFF752FFE3E70C2038BDDA21CF
:102C50001A20FEF70DFCB3211A20FEF709FCD5213E
:102C60001A20FEF705FC00BFFFF7C8BF014B18682C
:102C7000704700BF9C00002038B50D210546FFF7C6
:102C800049F8A0B1044641F23022002109F0B2FC1B
:102C900041F201420123A4F8A42084F8F230FFF7A6
:102CA000E5FFC4F81841C4F82001258038BD3A2159
:102CB0005320FEF7DDFB00BF10B504460AF0D0FD3F
:102CC00008B9002010BDE0430AF0CAFD0028F8D082
:102CD000E31683EAA4635A1E1A42F2D0E3B25A1EE4
:102CE00013405A1E1342ECD0A0B20CF02DF90B2861
:102CF000E7D820460CF024F91828E2D8A3B2B3EBA9
:102D0000144F04D184EA142313F0FF1FD9D0044BCD
:102D100063405A1E1A4214BF01200020D2E700BFB0
:102D2000D6BE898EF0B5070CA7F5AA42144B543ACB
:102D3000012A03EA90231FD927F4004042F6AA2271
:102D4000801A18BF01200022162116461F2487EA88
:102D5000060562EA0505013510D0DD03ADB245EA8E
:102D60005606E503ADB2013945EA52024FEA530374
:102D70004FEA5404EBD1F0BD0020E4E70020FAE76D
:102D8000E0FF3F00F8B51E468B1F9BB240F67A4528
:102D9000AB4207461046BDF818203AD8841FA4B2AB
:102DA000AC428CBF002401242546A7BB1C4B1B79D9
:102DB0006BB15CB96FF450654B19062B06D86FF4F4
:102DC0005063C418062C8CBF002401242546F5B19D
:102DD000814223D8B6F5FA7F20D2A2F10A039BB232
:102DE00040F676418B4219D80AF032FE013642F2A3
:102DF0001073B6B25A434643B2EB460F0ED9BDF834
:102E00001C50BDF8200085428CBF002501252846B6
:102E1000F8BD0024C8E797F88130C9E70025F6E738
:102E2000480B002010B503210020FEF7B1FF044637
:102E300070B90321FEF76EFF044620B940F21B3142
:102E40003920FEF715FB034B93F928100CF082FB99
:102E5000204610BD480B0020F7B5114B9C7EDD7E4F
:102E60009F8B064614B900F0E1FD0446A5B900F0B9
:102E7000DDFD054614B9092003B0F0BD0028FAD0E5
:102E8000304601A98DF804408DF80550ADF8067064
:102E90000BF07FFD0020EFE7002CF1D1EBE700BF46
:102EA000AC0F0020034B044A1A60044B044A1A601A
:102EB000704700BFB000002029680000A00000207B
:102EC0009167000008B50BF0C5FC00F029FF00F089
:102ED000BBFD0BF0CAFF01F097F801F073FA01F0A7
:102EE000C7F8012000F074FD0D4A0E490E4811602C
:102EF00000231B2153839180D383138413760B4AC1
:102F00008261838080F8293001F1A47101228375E8
:102F100001600277BDE808401E300CF070BF00BFB2
:102F2000AC0F002003021B00480B0020F900000733
:102F3000044B41F64C521B21C3E9022219745A6119
:102F4000FFF7C0BFAC0F00207FB5364DAB6804461D
:102F500040F8443FFFF7F8FB064600F061FDA4F897
:102F60004E60314E2B7C84F84C3010F0200F3368CB
:102F70001DBFAA886988A4F86E101B2208BFA4F898
:102F80006E20A4F870205BB1012302A88DF80830F0
:102F900003940CF021FF336894F98010208898473F
:102FA000224B1A79002A14BF0122002203F10803E0
:102FB00084F881200FCB04F18C0686E80F0041F6DF
:102FC0004C5318BF4FF47A73E3612046FFF744FF78
:102FD000064648B120880221FEF7F0FEF0B140F22B
:102FE0007E513920FEF744FA04F128000CF001FF6D
:102FF0006B7801932B7800936A88AB8804F11801F1
:1030000004F11400FEF736FF636913B940F28F51E3
:10301000E7E7A3691BB94FF4B261E2E7092630463E
:1030200004B070BDAC0F0020A4000020480B0020AD
:103030002DE9F34105460E460CF0D1FA002800F0C8
:10304000AE8028460CF05DFB30B1B6F80130013B94
:103050007F2B01D9122404E028460CF056FB20B93E
:103060000C24204602B0BDE8F0812846FFF7EAFBB9
:103070000028F5D128460CF057FA80460028EFD1F9
:10308000284602F0D7FC0028E4D0B6F80170F178A9
:1030900042F2107328465F430CF01BFB042130788A
:1030A000FEF776FE062104463078FEF771FE002C0E
:1030B00077D038B141F2F4713920FEF7D9F990F8A0
:1030C000BD800446404E3368002B6CD0403420460F
:1030D0000CF084FD002866D020460CF073FD00281B
:1030E00061D1B8F1000F08D0384B20461B689847D3
:1030F000002858D041F60801DEE7354933684969B0
:1031000042462046984700284DD041F60D01D3E7AE
:1031100028460CF0F6FA40B902210DF10600FEF740
:10312000C1FD064658B90D249BE728460CF0FBFA72
:103130000028F1D1274B1B79002BEDD18AE7002124
:1031400000F0E4FEBDF806303380284631460CF02E
:10315000FFFA28460CF0E7FAA0B928460CF0EDFA81
:1031600001463046FFF7F0FE044600287FF479AFB1
:103170003A4631462846FFF7E5F9044620B141F6C4
:10318000390199E70121ECE7124B1B6B002B3FF44F
:1031900068AF024606F5B1713046984761E74224B0
:1031A0005FE700288BD128460CF09FFA01460028E3
:1031B000AED13A462846FFF7C5F9044600283FF449
:1031C00050AF41F6160177E7B0000020AC000020B8
:1031D000AC0F0020480B0020B0F90020F8B514B265
:1031E00092B202F5A0639BB2B3F5206F34D8B0F968
:1031F00002301DB29BB203F5A06189B2B1F5206F18
:103200002AD802F2F64189B240F2BE50814225D856
:1032100003F2F64189B2814220D8002CC4BF0932A2
:1032200014B2002DC4BF09331DB20A2094FBF0F480
:1032300000F0F2FE67B206460A21384695FBF1F12E
:1032400049B200F0DBFE074B1B684BB1A01B40B23C
:1032500008B198470020F8BD3020FCE71120FAE7BC
:103260001846F8E7A8000020034B5A8802801B7814
:1032700083700020704700BFAC0F00202DE9FF4194
:103280000778EF2F04460D4601D912259CE0B0F8CF
:103290000130ADF80C309DF80C30D8066CD499068E
:1032A00003F0030265D5002AEFD11A0703D503F016
:1032B0006703012BE9D163781E0711D42179E278E5
:1032C000E07942EA0122617942EA0142A17941EAC8
:1032D0000021207A41EA00418A42D6D81F2AD4D957
:1032E000627A013A062AD0D8A27A032ACDD813F0FE
:1032F000040102D1023A012A03D8E27A012AC4D891
:1033000011B9A27C032AC0D813F01001227D43D04A
:10331000012ABAD1237E012BB7D800294CD063787B
:10332000D80703D500F0FCFA00284CD06378227D42
:1033300003F01801082959D1022A44D11B0709D4E6
:10334000E279A37943EA0223227A43EA0243B3F5FE
:10335000804F38D81FFA87F803214046FEF718FD42
:103360000646002848D0FFF76DFA002850D00C25FB
:103370002AE0032A99D188E713F0600F85D103F082
:103380000F0203F00703052B95D0931E012B92D952
:10339000002A7FF47AAF8EE7022A04D103F06F038C
:1033A000092B7FF472AFA37D013B022B3FF66DAF7B
:1033B000E37D0F2BAED968E700F038FB81070AD414
:1033C000237D022B04D11125284604B0BDE8F081ED
:1033D000A37D022BF7D000F029FB42079FD4237D69
:1033E000032BF0D0A37D032B99D1ECE7022AA5D0C3
:1033F000A27E002AA2D0E6E703214046FEF78AFC1F
:103400000646002840D0214B93F928100CF0A2F872
:10341000002138460CF0EDFA18BB30460CF062F98A
:1034200021462870E074304602F05CFB637E05465E
:10343000002BC9D00028C7D1F16C02466846FEF7C0
:10344000DFFDF06C2A4601210AF034F9F16C684680
:103450000422FEF7D5FDF06C2A4629460AF02AF927
:10346000B2E740300CF0BAFB0028D6D0637813F0F6
:10347000330F7FF40AAF3046A77D0CF05EF90AF0F7
:103480006EFB8742C9D072E707259DE7480B0020F5
:1034900030B50279042A8BB0034658D84488B4F575
:1034A000804F54D82B4810440021027AC578ADF8DB
:1034B000041042F0100242EA4502457B807C8DF800
:1034C0000C1042EA850242EAC00202F01F028DF8A7
:1034D0000420BDF80420ADF80D201A888DF80F20C7
:1034E0008DF81240120A240A8DF811108DF814106C
:1034F0008DF810208DF813405A7B8DF815205A79DD
:103500008DF816209A79D3F807008DF81720B3F8B4
:103510000B209B7B8DF81E307F238DF81F300123FD
:1035200006908DF82110ADF81C208DF820308DF814
:10353000223003A88DF823108DF824108DF8251063
:103540008DF8261001A9FFF799FE0BB030BD1220AF
:10355000FBE700BF0E140200F7B5B0F80120B0F889
:1035600003309A42054602D9122003B0F0BD052A65
:10357000FAD9052BF8D9B0F80530002B40F092802D
:1035800000780321FEF704FC0646002800F08C803A
:103590000CF0AFF80028E7D130460CF0C4F8002852
:1035A000E2D130460CF0A1F80028DDD130460CF015
:1035B000A4F801460028D7D128780CF01AFA04465E
:1035C00000284AD128780621FEF7E2FB07460028AA
:1035D0004AD1BCB906202F7809F0B1FFBFB200284C
:1035E00055D006213846FEF795FB00284FD080F8CD
:1035F000BD4004462E4B20461B68984706F1280321
:10360000C4F88830E18D94F830304FF6FF72914263
:1036100046D0002B14BF3B272327A0680AF0D8F818
:10362000B5F8032073790097014640F2E240424327
:1036300020460CF0F2F9002838D004F14001284669
:103640000AF07DFA7379237430460CF04BF801468A
:1036500020460CF0F3F9002087E740300CF0B2FA76
:103660000028AFD00C2080E790F8BD303BB1014678
:1036700028780CF095FB0E4B38461B68984706F1EE
:103680002803C7F88830002387F8BD30A1E704215C
:103690003846FEF73FFB04460028ABD1072064E71D
:1036A0000927BAE7112060E742205EE745205CE782
:1036B000A00000202DE9F347074603214078FEF7DC
:1036C00067FB0546002800F0B18004217878FEF7FA
:1036D0005FFB062104467878FEF75AFB06462CB1BC
:1036E000C0B141F6AF113920FDF7C2FE18B90C2068
:1036F00002B0BDE8F08790F8BD9004463B7804F135
:103700004008DB07404640F184800CF05BFA18B1BA
:103710000020EDE78146F1E728460BF0EAFF00289C
:10372000E5D128460BF0FFFF0028E0D128460BF03A
:10373000DCFF0028DBD128460BF0DFFF0028D6D1C4
:10374000B9F1000F36D06B79237495F84630627B5F
:103750001B0963F3071262733B78C3F34003A3733F
:10376000404603F05BF80028C2D156B1B9F1000F12
:1037700007D00AF03BF92E4BC6F890001B7E86F866
:10378000A3300AF033F9206000F096FD20F07F406E
:1037900060602846FFF756F80028B9D0B9F1000F4D
:1037A0002CD0244B40461B6898470028B0D041F6E7
:1037B000FF1198E7A06809F0E3FF002897D1E18D99
:1037C00094F830304FF6FF72914214D0002B14BFA2
:1037D0004FF03B0A4FF0230AA06809F0F9FF6B791C
:1037E000CDF800A00146226F20460CF016F9002803
:1037F000A9D145207CE74FF0090AEDE70E4B4A4678
:103800005969404603F010F8002881D041F60421A0
:1038100069E7B9F1000F04D002B0BDE8F0470CF041
:10382000C1BA02B0BDE8F0470CF0A4BA42205FE78D
:10383000480B0020AC000020AC0F002013B503782B
:10384000044653B1002301A8019304F077FF019BC4
:103850009B0702D00C2002B010BD024B22781A71D7
:103860000020F8E7480B00200278034672B1427846
:1038700062B142881A2A09D982881A2A06D9044ACA
:10388000006810609B88938000207047122070476A
:10389000AC0F0020024B02689A600020704700BF06
:1038A000AC0F0020024B02685A610020704700BF35
:1038B000AC0F0020014B187600207047480B002009
:1038C000014B587600207047480B002008B501F0E6
:1038D0007DFFFEF729FEBDE80840014801F060BF0A
:1038E0007C0B002008B5034802F03CFFBDE808400F
:1038F000FFF7D8BA7C0B002010B5064C064904F53A
:1039000003700AF055FF04F504700449BDE8104047
:103910000AF04EBF7C0B0020B4000020BC00002049
:10392000014B93F80A0270477C0B002010B5094C3C
:103930000D2000F059F804F5037007490AF038FF2C
:1039400004F5047005490AF033FFBDE81040242057
:1039500000F04AB87C0B0020C4000020CC000020FE
:1039600038B5094C0D4600F0CBFBD4F80C02C4F876
:1039700004510AF015FFFFF7DBFA00F0B5FC012354
:1039800084F8183238BD00BF7C0B0020014B93F83F
:10399000180270477C0B002010B50C4CD4F81002B4
:1039A0000AF0FEFED4F814020AF0FAFEFFF78AFAD3
:1039B000202000F027F82F2000F024F8262000F027
:1039C00021F8002384F8183210BD00BF7C0B0020C2
:1039D000014B83F8190270477C0B0020014B93F8D0
:1039E000190270477C0B0020C2080549012300F032
:1039F000070003FA00F08B5C18438854704700BF3F
:103A000018000020C208054900F007000123834088
:103A1000885C20EA03008854704700BF180000202B
:103A2000014BD3E90001704718000020054B1868CE
:103A3000C0F3C022C0F30020400040EA820040F002
:103A4000010070471800002008B505F0E1F8084AA9
:103A5000002332F82310814205D302EB83039B78C5
:103A6000044A137008BD01330C2BF2D10023F7E791
:103A700064140200960D0020024B187800F0070035
:103A8000704700BF960D0020054B9A8E824201BF01
:103A9000002283F832204FF6FF729A86704700BFEB
:103AA000980D002050B90A4A1346012003F8010B73
:103AB0000868C2F801008A889A807047012805D1F9
:103AC000034B0A689A608A88D8719A81704700BF50
:103AD000D20D002048B90A4B187880B1D3F80120E4
:103AE000B3F805300A608B807047012806D1044B7B
:103AF000D87920B19A680A609B89F4E70020704762
:103B0000D20D002020B9054B187800F00100704755
:103B100001280ABF014B0020D879F6E7D20D00201A
:103B2000F7B500228B888DF80600ADF804300868E0
:103B30000C4B8DF80720019D1C78014603F5AC73F2
:103B4000D0B2844201D8082009E0D3E90076AE4221
:103B500008BF8F4203F1080302F10102F0D103B064
:103B6000F0BD00BFE00D002030B5094B01465C7888
:103B7000002203F58173D0B2844201D8082005E009
:103B800013F8015B8D4202F10102F4D130BD00BF98
:103B9000E00D0020F0B5254D95F8984189B02246FA
:103BA00005F29911684608F0ADFC214668460AF016
:103BB00070FE0446B8B300EB4001C9B202A8FDF79D
:103BC00055FE601E95F8A161C0B2012495F89821B8
:103BD00005E0731CB3FBF2F102FB1133DEB206F118
:103BE00020030DEB030111F8203C002BF1D100EB79
:103BF000400220326A4406EB46032B4412F8187C3C
:103C000083F8A27112F8177C12F8162C83F8A371AE
:103C100083F8A42101F8204C0138AB19C0B2FF2869
:103C200083F89941D2D109B0F0BD00BFE00D00206A
:103C300070B5064688B00C46002A4FD02A4A92F842
:103C4000A131D01890F8991121B94FF48071282032
:103C5000FDF70EFC03EB43011144013391F8A2512F
:103C6000E57091F8A35191F8A411617100212571BB
:103C700080F8991192F89811B3FBF1F001FB103321
:103C800082F8A13192F8C23123B9184902F5DD70EA
:103C90000BF0F9F8657905F03F0545F040056571D1
:103CA0000D220021684608F0A5FCE3788DF80F305E
:103CB00023798DF80E3004AA0423694630468DF826
:103CC0000D5008F05DF99DF81F3023709DF81E30EF
:103CD00063709DF81D30A37008B070BD032160189B
:103CE000FDF7C4FDD6E700BFE00D0020953B0000C6
:103CF000044B5A78824286BF1B1893F84A01002071
:103D0000704700BFE00D0020044B5A78824286BF06
:103D10001B1893F842010020704700BFE00D0020FF
:103D2000064B00224FF461711A8083F8C32183F897
:103D3000C421A3F8C61183F8C2217047E00D00200A
:103D4000014B83F8C4017047E00D0020014BB3F82C
:103D5000C6017047E00D002030B50A4B5C78844204
:103D60000ED9184490F802012B3003EBC004A5795A
:103D70000D7053F830001060A3889380012030BD8F
:103D80000020FCE7E00D00200246074810B590F83F
:103D9000C34124B1417821B1023002F0E5FD204653
:103DA00010BD0C46FBE700BFE00D00202DE9F74FEA
:103DB0002F4C9A46637883428046894656D9231809
:103DC00093F8425185F00105F9B193F84A31E3B90E
:103DD00045F002070135BAF1000F18D1FA070AD5EC
:103DE000062101FB084104EB0810524601F58571DC
:103DF0008230FFF71DFFBB0734D504EB0810524695
:103E000049460230FFF714FF2CE02F46E3E794F811
:103E1000A1614FF0010B002DE0D0A319019393F89D
:103E2000991199B90092DAB100F02EFA06EB460129
:103E30002144019B81F8A2014FEA102C009A81F8DD
:103E4000A3C1000C81F8A40183F899B194F89831CA
:103E50000136B6FBF3F103FB1166F6B2013DDAE77A
:103E600047F00407384603B0BDE8F08F0027F9E7B4
:103E7000E00D0020074B5A78824209D91A1892F8AF
:103E800042212AB9062202FB003000F585707047F6
:103E900000207047E00D0020064B5A78824281BF17
:103EA0001B1893F83A01B0FA80F0400998BF00203F
:103EB000704700BFE00D002030B50024A0F852404C
:103EC000B0F8564042F210754C43B4FBF2F4A0F83F
:103ED0005640541E05FB0343B3FBF2F3A0F85430E5
:103EE000094BB3FBF2F30133A0F85A30B0F84C3071
:103EF00005FB0344436CB4FBF2F459438464B1FB07
:103F0000F2F2426430BD00BF005A620270B504464E
:103F10000D4659BB4FF4806208F06CFB012384F816
:103F2000CE30492384F81B31042384F81C316FF010
:103F30003B0384F81D316F2384F81E316FF03F037B
:103F400084F81F312B2384F81A31FE2384F856316C
:103F50007F2384F8C5301E4BC4F8B030202384F88A
:103F6000205184F8215184F8843370BD012922D175
:103F70000023C269A0F80E3380F80333154B1344B5
:103F8000B3FBF2F3C0F8F03040F6B833A0F8F430E9
:103F90001146C38CA830FFF78FFF0CF07BF830B1CF
:103FA000206AFEF7BFFE10B984F8F052DDE7002367
:103FB00084F8F032D9E70229D7D1B0F8DA33D0F853
:103FC000D423C169BDE87040A830FFF775BF00BFBA
:103FD00000E0FCFF7FC3C901074B93F90030184490
:103FE000142804DC10F17F0F03DB40B2704714206B
:103FF00070476FF07E007047A80F0020014B1870CB
:1040000059707047A80F0020024B00221A705A7096
:10401000704700BFA80F0020014B93F900007047C4
:10402000A80F0020014B93F901007047A80F002052
:10403000054B1B7833B9054B1A681B790260037175
:104040000120704700207047AA0F002020000020A8
:10405000054BFF221A70054A016811600179117140
:1040600000221A70704700BFAA0F00202000002015
:1040700007B5064B186800901B798DF80430684628
:10408000FFF7E6FF03B05DF804FB00BF96360200C1
:1040900010B5094C14220021204608F0ABFA122278
:1040A000002104F1140008F0A5FA01232373231D55
:1040B000C4E9003310BD00BFD00F002010B520B9F7
:1040C00040F21B211020FDF7D3F941600272EFF39B
:1040D000108472B6094B1A1D0260596819B1097A29
:1040E000012908BF1A601A681060186004B962B626
:1040F000BDE8104093F8260008F06EB8D00F0020FD
:10410000024B83F82600FFF7C3BF00BFD00F00208B
:104110002DE9F341584D594F06466B681B7A0C2B1D
:1041200007D1FB7F2BB13B8C1BB9002002B0BDE84F
:10413000F0812B69BBB11B7AABB12C69002CF4D098
:1041400094F808805FFA88F805232372A8F1020327
:104150000A2B00F28280DFE803F017233880505FDB
:104160005050505073006C68237A012BDDD0EFF370
:10417000108372B66A6812686A6003B962B6237AFD
:10418000002BD6D02C61DBE7636823B940F2A11184
:104190001020FDF76DF931462046984704201CE0B9
:1041A000636813B94FF4D571F2E73146204698475A
:1041B0000346C3F30723012BADF80400C0B24FD070
:1041C000022B0AD100232B614CE0636813B94FF432
:1041D000DA71DDE7204698470020EFF3108372B6CE
:1041E000227A052AD1B201D000293FD100222272C1
:1041F0002A61002B36D162B634E0214B1B68002BBC
:10420000EAD06068424631469847B8F10A0FC5D1F6
:1042100000232B61042089E763680BB9C621B7E747
:104220000D2232701988A6F8031001220024586963
:10423000B2707271B471214609F0F7F82C61E9E7A8
:10424000606810B940F2DF11A2E70E4B31461B68DF
:10425000984700232B61022068E74FF4F47197E739
:104260000323237200283FF458AF5FE7002B7FF44D
:1042700054AF62B651E700BFD00F0020AC0F002052
:10428000D8000020D4000020094AD2E900034340AE
:1042900083EAB01181EA43214FEAF3435360054BAF
:1042A000116058434FEAF06000EB8000704700BF98
:1042B000F80F0020BB79379E094AD2E90203434038
:1042C00083EAB01181EA43214FEAF343D360054BFF
:1042D000916058434FEAF06000EB8000704700BFE8
:1042E000F80F0020BB79379E38B50A4C04F1080559
:1042F00008212846FDF7BAFAD4E902231343F7D080
:10430000FFF7DAFF2060FFF7D7FF23686060034301
:10431000F6D038BDF80F0020F0B5204E05463078B5
:104320000024147080B1431E7768DBB2181B01288B
:104330000BDC07EBC40057F834604068884208BFC4
:10434000AE4212D114700120F0BD1819461007EBCF
:10435000C60E57F836C0DEF80460AC45C0F347001F
:104360008E412CBF03460446E0E7B54271EB0000E6
:1043700002D214700020E7E707EBC30057F8334080
:104380004068884208BFAC4201D11370DBE7A54208
:10439000814128BF01331370ECE700BF18100020E3
:1043A00010F0070208B503D063214820FDF760F83C
:1043B00018B1034B197258601A70C80008BD00BFCD
:1043C00018100020014B00221A70704718100020AE
:1043D000014B187A704700BF181000202DE9D34315
:1043E0000AF0B8FD0DF1070207460E46FFF794FFED
:1043F00098B9114C2278237A93420ED06168134603
:104400006FF0604E9DF80700984209D301EBC0039E
:10441000C3E9007601322270012002B0BDE8D083EA
:1044200003EB0E0001EBC000D0E90089013BC0E9BD
:104430000289DBB2E6E700BF1810002037B50AF0AA
:1044400089FD0DF10702FFF767FF0446A0B10C4A92
:104450009DF8070013785568013BDBB213701A1AF8
:10446000D2B2411CD200834238BF002205EBC10109
:1044700005EBC00008F000F8204603B030BD00BFD7
:10448000181000201A4B33F8113030B5082900F10C
:10449000FF3403F2E7334FF47A724FEAC414B3FBEC
:1044A000F2F317D0042919D002290CBF18252825AA
:1044B000002208292A4415D0042916D0022915BF44
:1044C000082504251921122105FB0122234400FBA4
:1044D000023030BD4FF4A8754022EAE74FF4A875CA
:1044E0002E22E6E740251421EEE71025FBE700BF6A
:1044F000D0140200082937B51FD0042921D0022981
:104500000CBF18252825002408292C4403F1050395
:104510001BD004291BD002290CBF0421082101FB58
:104520000344437990F84410013B072B1DD8DFE882
:1045300003F021101C231C1C1C234FF4A8754024DD
:10454000E2E74FF4A8752E24DEE74021E7E71021CB
:10455000E5E70125D301CA3304FB0232124B9A422C
:104560000CD94FF4F3612D2002E04FF43A7106208C
:10457000FCF77EFF0025EDE70225EBE71E23B2FBEB
:10458000F3F201F03F0343F040030020C2F30721A0
:1045900063F30700D2B262F30F2041EA451363F3DD
:1045A000174003B030BD00BFC3BF030038B5074D8F
:1045B000044600F1690128680AF07AFA94F8681054
:1045C0002868BDE838400AF081BA00BF24100020F6
:1045D00038B5084D044600F1690106232868002219
:1045E0000AF08DFB94F868102868BDE838400AF09E
:1045F0006DBA00BF24100020094BDA68B0F84830CB
:104600001A44B0F8483110B51A44044600F1690163
:1046100092B236300AF013FA84F8440010BD00BF9D
:104620002410002007B50AF0B8F98DF807000548F6
:104630000123006806220DF107010AF060FB03B0B8
:104640005DF804FB2410002008B5044B986910B1F4
:1046500040300BF0B7FA00F0010008BD2410002034
:1046600008B5044BD86910B140300BF0ABFA00F03C
:10467000010008BD24100020F8B504460E466588E8
:10468000C07F15F00401134618BF04F177013246CC
:10469000FFF78CFBC20705460BD5012384F8683071
:1046A000E07FFFF7E7FB0368C4F869308388A4F86C
:1046B0006D30AB070CD5094E0127306884F8767051
:1046C00004F177010AF0FBF9306839460AF007FA7D
:1046D00085F00400C0F38000F8BD00BF2410002066
:1046E00010B50446084694F8D83073BB237884F894
:1046F000D930082904F1DB0217D004F1DA01FFF701
:104700002BFB20B940F6BF712D20FCF7B1FE94F8C9
:10471000DA3043F0020384F8DA3004F1D0000B49B8
:10472000BDE8104002220AF0A2BB094B18680346FC
:1047300013F8031BC1F3801184F8DA10D0F80310CA
:10474000C4F8DB109B889380E7E710BD97EF00006B
:104750002410002070B504460E461546FFF73EF9BA
:10476000A0B9237884F8C030637CA4F8C16084F8D1
:10477000BF500BB194F8483084F8C33004F1B60050
:104780000349BDE8704002220AF071BB70BD00BF52
:10479000B1F4000010B51049044602228C300AF032
:1047A00066FB0E49022204F1C4000AF060FB94F893
:1047B0009520B4F896102046FFF7CCFF084B002256
:1047C0001A71084B1B682BB1206A21460222BDE8F2
:1047D0001040184710BD00BF49F4000081EF0000F1
:1047E00024100020E400002038B5B0F848301A4DFD
:1047F0000133A0F84830AB7C04462BB103F072FAC9
:1048000002F0E8F80023AB7400232B7194F8893090
:104810002BB101212046BDE83840FDF7A1BF637CE4
:10482000BBB1B4F848209A4213D301212046FDF7CA
:1048300097FF6388DB0748BF236A204644BF198877
:104840004322BDE838405CBF43224FF6FF71FFF7BB
:1048500081BF0021DEE700BF2410002038B50F4DD6
:104860002B79012B044602D02B79022B05D1AB7C8E
:104870001BB103F037FA02F0ADF807F0B3FF95F87B
:10488000283023B92046FFF7AFFF002038BD20466F
:10489000FDF742FF0028F9D1F4E700BF2410002003
:1048A00018B1084BD86AFFF79FBF51B1054A137979
:1048B000116BD06A096903F18043033B51F823303F
:1048C00018477047241000202DE9F043032985B0D4
:1048D000054690467ED090F8883003F0FF02002B0A
:1048E0007DD1052904D16B88DE0760D5002A5ED111
:1048F0000127DFF8F09099F81260B6B109F0E0FFF7
:10490000082888F8000014D002AA0DF10701FFF76B
:1049100023FA20B940F642712D20FCF7A9FD9DF83D
:10492000070002A90AF022FB064698F80030082B7F
:1049300008D1D9F8001011F8030BC0F380100AF069
:1049400015FB0646D9F8001095F86F2011F8030BF7
:1049500005F17003C0F3801009F07DFFD9F8001055
:10496000044611F8030BC0F3801009F09FFF814645
:10497000FFF792FA014640B1B9F1080F1BD0484643
:10498000FFF7B6F980F00101C9B298F800000828D5
:1049900015D094B9EB7F1C1A604260416B885A07AE
:1049A00006D421B996B96B7D93B1BB4210D00020DB
:1049B00005B0BDE8F0830021E7E70120EEE714B180
:1049C00081F00104E4B204F00100E7E73046EFE7CC
:1049D0000120EDE743889B07E9D5022789E70529F0
:1049E000E5D180E7241000202DE9F341454C2379DF
:1049F000012B07D02379022B04D040F6E2412D2071
:104A0000FCF736FDE26A176A0FB197F88170A8B912
:104A10000125A37C1BB103F065F901F0DBFF002D3C
:104A20006CD0E06AFDF778FE002861D002F0CCFC83
:104A3000236B9B6802B0BDE8F0411847216811F86C
:104A4000096B02F16903F00992F8682009F003FF8D
:104A50000028DDD006F00F06052E20682DD190F835
:104A6000243003F01F03102B27D9D4F82C8098F89A
:104A7000135015B308230DF10702314640468DF857
:104A80000730FFF721FF0028C3D098F8E930002B4A
:104A9000BFD1226808F1EA01D31C233253F8040B7A
:104AA00041F8040B9342F9D11B880B80022216496E
:104AB00008F1E1000AF0DBF9ABE739460AF034F817
:104AC0000028A5D02379E06A012B05D02379022B99
:104AD00002D040F6BB4192E72379226B03F1804379
:104AE0005269013B314652F823309847054690E71A
:104AF000E06A02B0BDE8F041FFF776BE02B0BDE863
:104B0000F08100BF24100020AFEF0000032973B52F
:104B1000044604D0052927D0012002B070BD082327
:104B20000DF107028DF80730FFF7CEFE0028F3D015
:104B3000237C23B19DF807102046FFF7D1FD0F4DD0
:104B40002B68062204265A701E702046FFF72EFDA1
:104B500094F85C20A16D286809F0D7FF28682E71B1
:104B600003F058F80020D8E7054B1B6823B198479D
:104B700080F00100C0B2D0E71846CEE72410002034
:104B8000E00000202DE9F04104460E4619B300F183
:104B9000300528460AF06CFEA0B963881A072ED5A6
:104BA00028460AF07CFE074628460AF061FE381ABD
:104BB000C0B20AF0C8FE544A936803442846936082
:104BC0000AF032FE28460AF034FE02F021FB217979
:104BD000252002F065F94C4D94F8762028680023D2
:104BE000037043706388103B0D2B57D8DFE803F048
:104BF00052564E0C5639565656565656563920462B
:104C0000BDE8F041FFF7F0BD062343702023037099
:104C10002046FFF7CBFC638823F008039BB2152BDB
:104C200005D094F85420216D286809F05FFF2868AA
:104C300002F0F0FF03232B7136B16388102B32D1C1
:104C40002179002002F0F2FA6388103B0D2B56D830
:104C5000DFE803F058554F4F554F555555555555AD
:104C6000554F0C2343702123037042B104F17701A7
:104C700009F025FF0121286809F031FFC8E704F198
:104C8000700109F01CFF94F86F10F4E7062303701D
:104C90004370BDE7022303700623F9E740F2556134
:104CA0002D20FCF7E5FB04F130084046EF680AF0E0
:104CB000F6FD064640460AF0DBFD013E301A6188EB
:104CC0002822C0B201F0BCF963881B07074406D54F
:104CD000AB681F440AF034FE3844C4F8200122793E
:104CE0003946002002F0CCFD0028ADD140F65751E6
:104CF000D6E721790120BDE8F04103F001B840F684
:104D00006B51CDE7BDE8F0812410002038B5438811
:104D1000102B044604D1BDE838400121FFF732BF13
:104D20000B4DAB7C23B101F037FE402002F0CEFFEB
:104D3000286802F06FFF608810F0040002D121792A
:104D400002F0DEFF002002F09DFF01232B7138BD31
:104D50002410002003292DE9F743044605D0052936
:104D600000F08680FFF740FD7CE008230DF1030290
:104D70008DF80330FFF7A8FD002877D0237C23B1FE
:104D80009DF803102046FFF7ABFCB4F802803D4EBF
:104D900001231F4630684FEA9812002562F38617F8
:104DA000072243700270C570294609F0D2FF2A46D7
:104DB0003946306809F0D4FF2046FFF709FC306817
:104DC0000AF018F8B4F85C30C0F1FE05AB42B4BF8D
:104DD000DDB2EDB2AB42C8F380182AD947F0100714
:104DE00000223946306809F0BBFF306809F0ADFF9A
:104DF000A91E0144C9B220460AF018FB0422C0F3E0
:104E000007238DF80400C0F307400DEB02018DF875
:104E100005308DF806000323306809F070FF306814
:104E200000223946A5F1030909F09AFF5FFA89F9D2
:104E30004D46B8F1000F06D094F9142094F84410B0
:104E40006079FFF7EFFBA16D30682A4609F0BCFFDF
:104E50003582FF20617902F023F80723306833712F
:104E600002F0D8FE002003B0BDE8F083204679E7C9
:104E7000054B1B6823B1984780F00100C0B2F2E7F0
:104E80001846F0E724100020DC00002010B5154C77
:104E9000A37C1BB102F026FF01F09CFDE06AFDF748
:104EA0003BFC20B1E06A438803F0180323B9E06AB1
:104EB000BDE81040FFF798BC2379012B07D0237978
:104EC000022B04D040F6E7312D20FCF7D1FA2379EC
:104ED000226B03F18043D268013BBDE8104052F8D9
:104EE00023301847241000202DE9F04FB0F802B00D
:104EF0008BB01BF0030704460191164608D0012F22
:104F000006D0022F04D040F282612D20FCF7B0FAC7
:104F10000BF00700052808D1002E72D04FF00008D2
:104F200045464FF00109012309E002285DD1002E1A
:104F300067D04FF0000845464FF0010943464FF057
:104F4000010A1BF0400B04D0002E00F0F6804FF059
:104F5000010B4AEA430343EAC90949EA051141EA58
:104F6000481848EA8B11DFF8488201F07B03009370
:104F7000D8F800309DF800B00022012107205A70B7
:104F800018705970002E40F0F880DE70B146394636
:104F9000D8F8000009F0DDFED8F800009DF80010F8
:104FA0004A4609F0DDFE009B9DF80070D80702D547
:104FB0002046FFF70DFBB90710D5019BD8F800007C
:104FC000002B00F0EB8004F177010623012209F0A9
:104FD00096FE0121D8F8000009F081FD0023002B86
:104FE00000F0E88040F66A018FE7002841D146BB17
:104FF000B4F854200BF02303134309D01BF020080E
:1050000013D04FF000080125A9464346C24698E751
:10501000FFF71AFB0028F1D1FFF722FB0346002817
:10502000ECD1B0463546B14689E72379012513F026
:105030000C0F0CBF4FF0010A4FF0000AA94643467F
:105040007FE7FFF701FB90B9FFF70AFB1BF0200594
:1050500000F0010867D1237913F00C0F14BF4FF053
:10506000010A4FF0000A4FF001092B4669E70120C1
:10507000ECE7012815D123794EB99D1ED5F1000A20
:105080004AEB050AB04605468146334659E7B3F177
:10509000020A4FF0000818BF4FF0010A454681464A
:1050A000CDE706283FF438AF042839D126BBB4F841
:1050B00054200BF02303134311D0237913F00C0F6A
:1050C0000CBF012300231BF0200F0CBF9A464FF0AA
:1050D000000A4FF0000801254FF0010931E7FFF702
:1050E000B3FA0028E9D1FFF7BBFA81460028E4D1E2
:1050F0004FF00008454616E7FFF7A6FA70B9FFF72C
:10510000AFFA237913F00C0F14BF012300231BF017
:10511000200500F001080CD19A46DDE70120F0E7F8
:1051200040F22571F1E600254FF001092B46AA4611
:1051300007E700254FF00109F9E7B4F8541041B131
:10514000217911F00C0F0CBF4FF0010B4FF0000B49
:10515000FFE6618801F023010029F1D10093FFF7F8
:1051600073FA009B0028EBD1FFF77AFA009B002826
:10517000E6D1002F3FF4EBAEE2E7DA70FFF770FA0A
:1051800050B1D8F81C3093F8BD30002B0CBF4FF055
:1051900000094FF00A09FAE68146F8E604F17001C9
:1051A0000623012209F0ABFD94F86F1012E700BF4F
:1051B000241000203A0716D5626CD8F80000C2F31C
:1051C0000B2262F30B0394F84620ADF81430120959
:1051D000C3F3072362F307138DF81530032202236C
:1051E00005A909F08CFDBF0640F1AC80D8F81C3051
:1051F000D4E9527A0BB9D8F818301A6E03925A6E65
:10520000CDE90123FFF72CFADDE9023288B1D8F8A5
:105210001C0090F8BD0060B103F140000AF0D6FD1B
:10522000DDE9023228B9186F0199821841F10001B5
:10523000019193F810C09F48D8F8141030F81C0062
:10524000CF194FF47A7C4AF1000A00F2E730B0FB44
:10525000FCF0C71B6AEB4A0ABF18019A42EB0A0A24
:10526000D4F83C21B7F5161FA2EB010E9DF81520CE
:105270007AF100004FF0000C4FEAEE7102F0BF022D
:1052800008DB6CF345128DF81520BDF814206FF380
:105290000C0223E0B7F5703F7AF1000008DBBE4551
:1052A00071EB0A01EDDA42F020028DF8152007E0DB
:1052B0006CF34512BE458DF8152071EB0A02E4DA55
:1052C0009DF8152012F0200F14BF4FF496721E2285
:1052D000B7FBF2F7BDF8142067F30C02ADF8142009
:1052E00040F2E2411A6FB2FBF1F2ADF81620D3F8AA
:1052F0001720D97E06929DF81C20019361F30402C9
:105300008DF81C20FEF7B8FB9DF81C20019B60F374
:1053100047128DF81C209DF815206FF3C7128DF8E9
:1053200015201A68CDF81D201A798DF821205A7998
:105330008DF822209A79B3F852308DF8232001336A
:10534000ADF82430012E50D1B4F85430002B4CD09D
:105350006388980749D4DFF860A1DAF8000009F003
:10536000F4FCB4F85410BAF81070421CD2B2CF1B3F
:105370000346C2F1FF008742A8BFD743FFB2B9423C
:1053800028D96288D10725D40193009BD8F8000062
:1053900043F010014A468B4609F0E2FC019BF91EDE
:1053A0000433CFB253FA81F1C9B220460AF03EF875
:1053B000C0F307238DF81000C0F307408DF81130BB
:1053C0008DF812000323D8F80000042204A909F084
:1053D00096FC01253A46216DDAF8000009F0F4FC4C
:1053E000BAF810301F44AAF8107065F3041B1BF0C4
:1053F000200F5FFA8BF506D02F4812230068052294
:1054000005A909F07CFC6A060CD5002E4AD104F1EE
:10541000300026790AF050FA014694F914203046FB
:10542000FFF700F9FFF71CF9002836D0224CE3699A
:1054300093F8BD308BB30721206809F07FFC092366
:10544000037032234370E369D3F890308370E369CB
:10545000D3F890301B0AC370E369B3F8923003713C
:10546000E36993F893304371E36993F8A130837152
:10547000E36940F2E241D3F89420B2FBF1F2C27149
:10548000E369D3F89830B3FBF1F30372E3697D224B
:10549000D3F89C30B3FBF2F343722B0606D540F6EB
:1054A000CF0132E5667994F84410B6E70BB0BDE859
:1054B000F08F00BFD0140200241000202DE9F74F18
:1054C000044690F84400804D0E4601F0A1FE61793B
:1054D000FF2001F0E5FC002E42D1286809F0E6FA31
:1054E0002779804604F130000AF0D9F9082F2BD033
:1054F000042F2DD0022F0CBF182228223346082F4C
:105500001A4408F1050827D0042F27D0022F0CBF1A
:1055100004210821EB6803EBC01301FB0822CA3306
:1055200000FB023063886861190742BFAB68C0188E
:10553000686162796969002002F0A2F9B0B940F6A9
:10554000A8512D20FBF794FF4FF4A8724023D6E713
:105550004FF4A8722E23D2E74021DBE71021D9E7D0
:1055600062794FF4A571002002F000FB63889A076E
:1055700014D0AEB96179012002F0C2FB94F8761024
:1055800001222046FFF7B0FC286802F043FB062307
:105590002B7101236B7103B0BDE8F08F002EEDD0AD
:1055A0006688286806F00203002B0CBF4FF0010943
:1055B0004FF000094FF0070319BFD4F85880B4F832
:1055C0005C70D4F85080B4F8547003704FF0000A47
:1055D00001234FEAC909C6F38016437049EA861BC6
:1055E00080F803A0514609F0B4FB2868524659469A
:1055F00009F0B6FB1BF0080FD94617D0626CBDF856
:1056000004302868C2F30B2262F30B0394F846209F
:10561000ADF804301209C3F3072362F307138DF8C2
:1056200005300322022301A909F069FB286809F06B
:10563000E1FB2B8AC0F1FE06FA1AB242B4BFD6B221
:10564000F6B233449F422ADD002249F01001286857
:1056500009F086FB286809F0CDFB2E8ABF1BC0F13C
:10566000FE06B7422868B4BFFEB2F6B209F06DFB81
:1056700081190131C9B2204609F0D8FE0422C0F3D5
:1056800007238DF80400C0F307408DF805308DF82E
:105690000600032328680DEB020109F030FB638844
:1056A0005B0606D594F9142094F844106079FEF74F
:1056B000B9FF298A28683246414409F085FB288AC7
:1056C00006442E8260E700BF2410002010B5084C6D
:1056D000B0F85C30228A9A4205D00121FFF7EEFE35
:1056E0000723237110BDBDE81040FFF77DB800BF50
:1056F0002410002038B543881D4D13F0020F0446D6
:105700000FD1DB070DD42A8AB0F854309A4203D166
:10571000BDE83840FFF768B8BDE838400121FFF721
:10572000CDBE0020617902F0EBFA6388617913F055
:10573000020F14BF0C20222001F0B2FB02232B71B8
:10574000AB7C4BB101F028F9637913F00C0F14BF57
:105750004520402002F0BAFA607910F00C0018BF22
:10576000282002F08FFA2868BDE8384002F052BACB
:105770002410002010B50948037903F0FF0453B941
:1057800024222146043006F035FF02F0ABFA01F086
:1057900021F9204610BD0C24FBE700BF2410002097
:1057A00010B5094C002323712060FFF7E3FF20B1FF
:1057B00040F225312D20FBF75BFE236B13B94FF42C
:1057C0004A71F7E710BD00BF24100020014B024AC8
:1057D0001A63704724100020E85F00002DE9F743AA
:1057E00004460E4600297AD000F1300528460AF01A
:1057F0003FF828B96388180763D528460AF014F8DB
:1058000028460AF016F801F003FD2179252001F061
:1058100047FB364D28680379D90623D5C3789A0605
:1058200020D009F043F9074604F1300094F80480D1
:105830000AF01EF8421C3B46D2B241462046FEF713
:1058400059FE0422C0F307238DF80400C0F307407B
:105850008DF805308DF80600032328680DEB020152
:1058600009F04DFA9EB32868EF6809F01FF904F1BA
:105870003009804648460AF012F80646484609F0C4
:10588000F7FF013E311A1FFA88F22079C9B20AF0F7
:1058900030F863881B07074408D5AB680121204610
:1058A0001F4409F0A1FE3844C4F82001227939468A
:1058B000002001F0E5FF50B940F687512D20FBF79D
:1058C000D7FD204603B0BDE8F043FEF78DBF286842
:1058D00002F0A0F905232B7103B0BDE8F0830A465E
:1058E00090F87610FFF700FB93E700BF241000202C
:1058F00010B50446303009F0BBFF00BB6388DA0600
:1059000004D52046BDE81040FEF76EBF0F4A9279DD
:10591000002AF6D0B4F8542003F02303134305D033
:1059200020460021BDE81040FFF7C8BDFEF78CFE01
:105930000028F5D1FEF794FE0028F1D1E1E72046DA
:105940000121BDE81040FFF749BF00BF241000202F
:10595000024B01229A71FFF7CBBF00BF2410002039
:1059600070B5114D0026012104462E826E7109F09A
:105970003BFEAB680344AB60B4F848300133A4F895
:105980004830FEF781FC4FF47F73B0FBF3F202FB6B
:105990001300AB6894F876101844A860324620468D
:1059A000BDE87040FFF7A0BA2410002010B5094CE4
:1059B000E06A4388092B07D1FFF7D2FFE06A012193
:1059C000BDE81040FFF70ABFBDE810400121FFF716
:1059D000D9B800BF2410002010B5154C237933B37B
:1059E000E06AFEF73BFF10B3E06A43881A070ED562
:1059F000092B07D1FFF7B4FFE06A0121BDE8104091
:105A0000FFF7ECBEBDE810400121FFF7BBB862799B
:105A10004AB9DB0603D5BDE8104009F074BDBDE806
:105A20001040FFF765BFBDE81040FEF7DDBE10BDBA
:105A300024100020F8B5867DB31EDBB2012B04468E
:105A40008CBF0027012796B3023E18BF0126012B09
:105A50002DD800F1700190F86F0008F027FF05467F
:105A600063889B0605D4082D2CD02846FEF74CF9F8
:105A700040BBE577A77784F86860FEF767F90546CD
:105A80000AF03DFA164BA5FB03351B1845EB010543
:105A90000022C4E9183584F8762011462046FEF726
:105AA000EBFD70B940F2C2412D20FBF7E1FC082567
:105AB000D6E704F169013046FEF70CF80028D8D18A
:105AC0000020F8BD002EF4D0637F002BF8D0D4F86E
:105AD0001730C4F86930B4F81B30A4F86D30C8E74B
:105AE00040420F002DE9F04F07460C4605460FCF08
:105AF0009BB00EAE0FC60FCF0FC697E80F0086E81B
:105B00000F0006A86E7995F8129009F072FEA37A3C
:105B1000029323780393237D6178013BDBB2022B50
:105B200001F07F0800F28180684A1344C9069F7C17
:105B300006D4A37D013BDBB2022B76D813449E7CB6
:105B4000B9F1010F05D1082F08BF0427082E08BF9F
:105B50000426617A06A809F053FE237DA27E022B5B
:105B600008BF617D02F1010206BF0131C9B2012106
:105B7000D2B206A809F046FE18F0080F6CD106A8AC
:105B800009F08DFE6378DA06824653D4FCF720FADA
:105B9000394681465046FEF775FCCDF80080014637
:105BA00001233246484609F011FA2279E37843EAA4
:105BB0000223627940F2712143EA024300F2D620C7
:105BC0004B43B0FBF1F04843984238D84FF0000BFC
:105BD00094F818A00593A37C04930AF1FF33D3F142
:105BE000000AE86C4AEB030A07F0F2FD8146E86C14
:105BF00007F0FEFD484538BF484680B2059B0DF1D1
:105C0000180960B308A9CDE90A3BCDF82090ADF89A
:105C100024808DF830708DF8316009F0D8FB059B39
:105C2000E8B945201BB0BDE8F08F40F29321062073
:105C3000FBF71EFC2822414600F0E2F9B5E7E379C4
:105C4000A27942EA0322237A42EA034201FB02F3E9
:105C5000984298BF0346B9E700239B46B8E7CDE9D1
:105C6000103B049B8DF84D30039A029B8DF83C70DD
:105C70008DF83D608DF848A08DF84E308DF83820B5
:105C8000ADF83A800EAF0FCF2E460FC60FCF0FC61E
:105C900097E80F0086E80F0099E803002863A986BB
:105CA000E37A13F0FD0F14BF0123002385F86F3052
:105CB000E3682B67238AA5F87430E27D95F84630B7
:105CC00062F3071385F846300020ABE7D0140200DA
:105CD0002DE9F041784E337986B0044603F0FF0594
:105CE00013B90378FF2B04D140F6DE112D20FBF70A
:105CF000BFFB724B0293724B0393724B0493336B53
:105D000075715B6880F8895002A805933582B5608B
:105D1000B57101F069FF01F047F901F0E3FF00F010
:105D200059FE694801F06AFA684801F057FF04F12A
:105D30003007284606F014FD384609F075FD384650
:105D400009F077FD01F064FA2179252001F0A8F827
:105D500094F9140001F04CFA2846217901F046FC30
:105D60000546F06030B92046FEF73EFD284606B0F5
:105D7000BDE8F081012104F1800008F062FD04F12A
:105D80005001E06C07F0B3FC04F158010746E06CE9
:105D900007F0D4FC80461FB194F82430002B63D167
:105DA000B8F1000F62D094F82550A37F13B963882F
:105DB0005B070AD5D4E918126FF000439A4208BF76
:105DC000B1F1FF3F54D1002D5AD1002F08BF4746F3
:105DD00094F88B3003B9AFB1638813F0100511D17B
:105DE000606CC0F30B2009F0AAFC94F8463084F8EC
:105DF000450023F00F03C0F30320184384F8460046
:105E000084F88B5030680330FDF7BEFF6588B074AE
:105E100015F001054ED00023CDE90033276A022397
:105E20008DF80630FF2386F8203007F10A0868460F
:105E3000FBF7E8FF002899D1009CA742F7D07A7AB7
:105E4000607A434604F10A0108F005FD0028EED00F
:105E5000A37886F82030D4F80330C6F821301C4BE4
:105E6000B4F807209A8081E701259EE745469CE724
:105E70000AF045F8D4E91823904271EB0303A2D34A
:105E8000012205EA02012046FEF7F6FB68B1FDF7A4
:105E90005DFF05460AF033F80E4BA5FB03351B18D2
:105EA00045EB0105C4E918358FE7002D8DD040F68C
:105EB0001F211BE7012559E7241000208D4E00000B
:105EC000E9490000A1480000D6BE898E555555000D
:105ED0004510002040420F0037B50446FFF7F8FE9A
:105EE000A8B3042120781B4DFBF752FFA86120784E
:105EF0000621FBF74DFFAB69E8612BB120B140F6FD
:105F000057212D20FBF7B4FA94F88A305BB168462C
:105F1000FEF78EF838B1694604F1360008F077FDD7
:105F2000002384F88A302046FEF766FB618811F072
:105F3000100106D00021204603B0BDE83040FEF736
:105F400021BE204603B0BDE83040FFF747BC03B098
:105F500030BD00BF24100020024BD8621B6B1B68B1
:105F6000184700BF2410002043881A0710B50446C4
:105F700012D5036A11493C2280F895201B88A0F8AD
:105F80009630FF2380F8B3304FF6FF73A0F8B4309B
:105F900002228C3008F06BFF6388DB0743BF236A63
:105FA0003C2219883C2258BF4FF6FF712046FEF76D
:105FB000D1FB012384F8893010BD00BF49F40000F3
:105FC0000D4B0000554D00000D4D000003F5000085
:105FD00051590000F5560000CD56000095470000CD
:105FE000FDF400002DF60000D95E0000D959000034
:105FF000AD590000E05F0000C85F0000C05F000016
:106000000138022808B503D9CA212F20FBF730FA3E
:1060100013290A4B05D811290CD8102907D0D821EB
:10602000F3E71529FBD103EB4003D88801E033F8EF
:10603000100008BD03EB40039889FAE7E61402005C
:1060400008B5431EDBB2012B05D91D291ED0EE2158
:106050002F20FBF70DFA10390D291BD8DFE801F0CE
:10606000071A11111A0C1A1A1A1A1A1A1A160B4AA6
:1060700002EB4303588A08BD084A02EB4303D88A5F
:10608000F9E7064A02EB4303588BF4E740F25A3330
:106090005843F0E74FF48171DAE700BFE6140200DD
:1060A00038B50446084694F8C03313B10C25284689
:1060B00038BD94F8C730172BF8D194F8E43303F0C7
:1060C000FF05002BF2D199B10A4B5968D1F8203362
:1060D000C4F84C3101F59C72052301F5447105F0BB
:1060E0004FFF012384F8C033204609F030FCDEE77F
:1060F0000223F7E758100020F0B505464B4895F805
:106100002D6030F81200093300F57E5007304FF44F
:106110007A77B0FBF7F7D8B2C4435FFA84FE51FA3E
:1061200084F4013C94FBFEF4E3B22EB1D5F8884030
:106130006478A34238BF23460144002B52D0082A7A
:106140003CD0042A3ED0022A0CBF4FF0180C4FF06E
:10615000280C0024082A644438D0042A39D0022AA2
:106160000CBF4FF482604FF402602044013B00F505
:10617000A57003FB0070082A03FB1E1303F0FF0346
:106180002AD0042A0CBF2E210021082A614403F1E1
:10619000050323D0042A23D0022A0CBF042208229C
:1061A00002FB0311084446B1D5F8882013785278D1
:1061B000DB0003F0F80303FB0200F0BD4FF4A87C02
:1061C0004024C7E74FF4A87C2E24C3E74FF4824055
:1061D000CBE74FF48250C8E74021D6E74022DFE703
:1061E0001022DDE7082A14D0042A16D0022A0CBF98
:1061F00018202820082A034401F1050011D0042AA0
:1062000011D0022A0CBF0422082202FB0033D81945
:10621000C9E74FF4A8704023ECE74FF4A8702E2391
:10622000E8E74022F1E71022EFE700BF1C1502006B
:1062300010B5044C2068403009F068FD002323713C
:1062400010BD00BFD0100020024B1B790BB1FFF72F
:10625000EFBF7047D01000202DE9F04FB34C2368FA
:1062600093F82D6093B082460D463EB1D3F8882056
:1062700056786279964294BF00260126B3F82880AA
:10628000E288D88D9F7BA8EB02085A6A01924FF6EC
:10629000FF7398421FFA88F83BD00A21FBF778FD7C
:1062A000814607238AF8003000210123A0688AF87C
:1062B00001308AF8031008F04CFD85B1236893F88B
:1062C00035504DBBB9F1000F28D099F81630012B8D
:1062D00005D099F84F30002B14BF3B252325B6007D
:1062E00046EAC70606F00C0AA0682A46514608F09E
:1062F00037FD16F00403D346009316D02368D3F875
:1063000088100B7813F0C00F0AD0FF210A20FBF78A
:10631000AFF84FF00009C4E70925E0E74D46DEE796
:10632000A0680123022208F0EAFC21688B7B2BB1D4
:10633000A068022303220C3108F0E1FCA06808F0F9
:1063400004FDC0F1FE06B045B4BF5FFA88F6F6B2B0
:10635000464507460AD3009B002B5FD0226863792D
:10636000D2F8882052780133934257DA4AF010016C
:10637000A0682A468B4608F0F3FCA06808F0E5FC0C
:10638000C0F1FE06B0450746B4BF5FFA88F6F6B224
:106390004FF0010A092D44D108238DF80C30282331
:1063A0008DF80D3023689A6BCDF80E2093F83C20C1
:1063B000DB8E8DF81220ADF81330A0682B46072233
:1063C00003A908F09CFC6AF3041B1BF0100F5FFA92
:1063D0008BF07CD0237BD4F800C0984408F03F08B1
:1063E000B8F1240F88BFA8F12408002384F80C809A
:1063F000ADF808308DF80A30237B9CF8102003F0AC
:106400003F0343F040038DF80830531E072B33D869
:10641000DFE803F037143223323232234FF0000A20
:10642000B8E7434B1B68002BCDD0232D01D03B2D6B
:10643000C9D1226803A948469847BEE79DF80A30AB
:10644000012161F34713042A8DF80A304FF0180335
:106450001AD100254FF482511EE09DF80A30022126
:1064600061F34713082A8DF80A3008D14FF4A87356
:1064700040254FF482410FE040F2591146E7042ACB
:1064800033D0022A5AD11823022A4FF000050CBF3C
:106490004FF482614FF4026140072AD42B440B442D
:1064A00003F5A5731E229BB2B3FBF2F39DF80A20FD
:1064B0008DF8093022F01F02C3F3042313438DF833
:1064C0000A30A0680323042202A908F018FCE1881E
:1064D000019BA0680B443246194608F075FCE3881E
:1064E0001E44E68013B0BDE8F08F4FF4A8732E254C
:1064F000B0E7082A18D0042A0CBF2E210021374407
:10650000082A194407F1050714D0042A14D0022AD6
:106510000CBF04220822DCF888301B78DB0003F073
:10652000F80302FB0711BAE74021E8E7D01000208A
:10653000E80000204022EEE71022ECE7082A4FF0A6
:106540002803A1D1002594E773B5594C2679206022
:10655000054626B140F262210A20FAF789FF90F839
:1065600035306BB1C38EB0F852209B1A1BB2002B92
:1065700020DC00F13801163008F049FA85F8356062
:1065800095F83430B3B105F138063046FDF750FDCB
:1065900080B1052205F11701304605F04DFF30B1FD
:1065A000012385F83530B5F852300A33EB860023E5
:1065B00085F834302368D3F888300025E58065718C
:1065C00013B940F26921C7E700F0EEFC394B1868B7
:1065D00001F00AFB236893F90F0000F009FE23681D
:1065E000FF20197C00F05CFC2368186800F006FEB0
:1065F0002068B0F8522050F8161B08F020FA2073DB
:1066000000F006FEA06801F005FB2368586801F061
:10661000E5FA284606F0A4F82368986803F12401F7
:1066200007F065F888B123689A7B4AB19889C0F36E
:106630000B0009F084F823689A8960F30B029A81B1
:106640002368002283F82C2004E0236893F82C3080
:10665000002BE8D1A0680121FFF7FEFD236893F825
:106660002D20AAB1D3F88820137813F0C00F14BFDF
:106670009B0903238DF8043013780021C3F304022F
:1066800001A8DB008DF805208DF8063000F03EFCF7
:1066900023680020197C00F0A9FF20B902B0BDE8F2
:1066A0007040FFF7C5BD0123237102B070BD00BF6C
:1066B000D0100020EC00002010B50A4C207B00F028
:1066C000A7FDA0680021FFF7C7FD236800201A7C02
:1066D0004FF4A57101F04AFAA068BDE8104001F03E
:1066E00099BA00BFD010002013B500B921B902B08B
:1066F000BDE81040FFF79CBD19494B790A6801338A
:1067000092F82D00DBB24B71E0B1D2F888004478EA
:106710009C4217D9037813F0C00F14BF9B090323C1
:106720008DF8043003780021C3F3040201A8DB00D4
:106730008DF805208DF8063000F0E8FBFFF7BCFF70
:1067400002B010BD108DCB88984203D1B2F8523000
:106750009382CCE702B0BDE81040FFF7ADBF00BFA9
:10676000D0100020054B00221A719860044B054A96
:106770001A60054B054A1A60704700BFD010002010
:10678000EC000020EC670000F0000020FC67000037
:106790001FB590220021044605F02CFFFBF7ECFB0F
:1067A00001220146A0606846FBF72AFCA06800228F
:1067B000012106F07FFF02A8FDF73AFC20B94FF453
:1067C000DD710A20FAF754FE02A904F1160008F060
:1067D0001EF9054BA3640023A3824FF6FF732464C4
:1067E000E38504B010BD00BFFC67000069F900003C
:1067F0005FF90000E96600004962000073F90000DB
:10680000A7F900004965000059F900003162000055
:1068100031620000DD7D00005BF90000014909F0F4
:10682000BCB900BFE9FC00002DE9F043044689B083
:106830000F469146037C012B40F08180024641497E
:10684000007902F069F920B94FF405710B20FAF7CD
:106850000FFE09F054FB05460E46FCF7D3F84946F7
:10686000A7623846FCF790F80146804604F1200004
:10687000FCF75AF840F6B8302D1846F10006B9F189
:10688000010F4DD1FCF77AF88269002A51D0206BB4
:106890007B1E0344B3FBF0F34343DB1BD2E9000749
:1068A00061EB0101181841EB07019046CDE9005654
:1068B000226BFCF787F80746B8F92400A4F84400D7
:1068C000022108F0EDFAB4F844301B1A3F18A4F87E
:1068D00044304FEAE07343F100037D1946EB0306B1
:1068E000FCF796F8204609F0ABF89623ADF8103087
:1068F000A368039000275B6820688DF808709847AC
:106900008DF813708DF81200CDE90656022323741A
:10691000204602A909F0C0F8384609B0BDE8F08366
:10692000B8F1000FDCD098E80B00181841F1000115
:10693000BCE7B8F1000FD3D028463146B6E70C20AB
:10694000EBE700BFE9FC0000014B1874704700BF83
:10695000E0100020034B00214FF480521970A3F87F
:10696000012070475C11002070B5064602201446D5
:106970000D4600F0D5F8064B01221A70054B033C7A
:10698000C3F81045C3F80865C3F8045570BD00BFCF
:106990005C11002000F0004008B5022000F0C0F8B3
:1069A00009480A4B0A494FF0010C80F800C0002248
:1069B0004FF40000C3F80021C3F80421C3F80821F4
:1069C000C1F8040508BD00BF5C11002000F00040C4
:1069D00000F00140114B1A786AB1114A11494FF485
:1069E0000000C2F80805D1F800213AB910210020B2
:1069F00099705A701870002000F092B8D1F80421F4
:106A0000002AF3D0D1F8082112B110210022EEE7BC
:106A1000D1F800140122C9B2E9E700BF5C110020DF
:106A200000F0014000F0004008B5114B1A7858788A
:106A300092B1104AC823D2F8001141B1D2F8040132
:106A400020B1D2F80801B0FA80F0400908BD013B3E
:106A500013F0FF03EFD101E0022803D1FA213B201C
:106A6000FAF706FDA0F10100B0FA80F0400908BD78
:106A70005C11002000F000400A4B1A787AB10A4BF2
:106A8000D3F800214AB1D3F8042132B1D3F8082158
:106A90001AB9D3F80004C0B2704710207047987834
:106AA000704700BF5C11002000F00040024B002244
:106AB0001A809A70704700BF60110020064B1A7848
:106AC0002AB106490648C1F8080500221A700022BA
:106AD000A3F80120704700BF6011002000F00140C2
